:100000000EEF00F00000000000EF00F00000000024
:0A0010000000000000000000F3D71C
:10001C00C46ACB6A010ECB6E0E0E0B6EF40E0C6E18
:10002C00620E0D6E0D2EFED70C2EFCD70B2EFAD7B2
:10003C000000CB6A0E0E0B6EF40E0C6E620E0D6E83
:10004C000D2EFED70C2EFCD70B2EFAD70000020E6D
:10005C00CB6E0E0E0B6EF40E0C6E620E0D6E0D2E24
:10006C00FED70C2EFCD70B2EFAD70000030ECB6E4E
:10007C000E0E0B6EF40E0C6E620E0D6E0D2EFED768
:0E008C000C2EFCD70B2EFAD70000C4D7FFD7DE
:020000040030CA
:0A000000770BFFBF7F3F9F0F010049
:00000001FF
