:020000002B2BA8
:06000600000000000800EC
:10000C000F3083120313FC004730FD00FD0B0C284E
:0A001C00FC0B0C2800000000080097
:0E002600213083120313FD00FD0B1728080084
:1000340083120313D61B2028861321288617561BE8
:100044002528061326280617D61A2A2886122B28AE
:100054008616561A2F280612302806164A183428EF
:10006400061535280611861503208611D6193C2855
:1000740086133D2886175619412806134228061769
:10008400D618462886124728861656184B28061274
:100094004C2806164A1850280615512806118615AC
:1000A400032086114A1C58280620592813200800CA
:0800B400FA1FF21300300800EE
:1000BC007B15FB1F68280130F300F201F101F00100
:0800CC00FA0DF20CFF300800F0
:0E00D400F201F101F001F801F3010030080023
:1000E200FB14FB1F7B28FF30F300F200F100F0004D
:0800F200FA0DF20CFF300800CA
:1000FA007B14FB1F8828F201FA1FFF30F200F1007F
:0A010A00F000FA0DF20CFF300800BF
:10011400831203134A105508D6001A204A14080003
:100124000E3083120313FD00FD0B96280000080017
:06013400FB15FF3008007E
:0E013A00831203134C088A004B088200080051
:10014800A0017208031DB9287108F2007008F100B7
:10015800F001A0157208031DB9287108F200F10119
:10016800A011201672080319C7282008F302031DDE
:10017800031CCB280310F21BCF28F00DF10DF20D54
:10018800F30BBF28CB280130FC006A20D2280230AC
:0E019800FC005E20D2280430FC005A20080033
:1001A6005C3083120313C7000130C8002130C90038
:1001B60000309F01C0309F042E09F000700883169E
:0C01C6009F051F179F1783121F140800CD
:1001D20083120313FB017308031926297208FA001C
:1001E200F2178E30F302F31F2929F309F30A0830BC
:1001F2007302031C0C29F300F10D7208F100F201E5
:1002020008307302031C0C29F300F10DF10173088D
:10021200031D031014297308031914290310F20C87
:10022200F10CF30B0F297B1B711C1E29031C1E29C9
:10023200F10A0319F20AF21B3529FA1F3829F209C9
:10024200F109F10A0319F20A3829F201F1013829F8
:100252007B14FB1F3B29F201FA1F3B29FF30F200FE
:10026200F100FA0DF20C3B290130FC003D2900306F
:10027200FC003D29FF30FC00FC08031941297D20C8
:0A0282007108F0007208F100080096
:10028C00831203137008F8007108F000F101F201F9
:10029C00F301FB01FC019630F300FA017008F10048
:0C02AC007808F000F801F201A42008001E
:1002B800C730831203139F052108F000F00D70105A
:1002C800F00D7010F00D701070089F0492201F152B
:1002D8001F1D702900006C291E08F100F00183160B
:0A02E8001E08F0040030F1040800C5
:1002F200831203137408003A031D94297508003A07
:10030200031D94297608003A031D94297708003AC0
:10031200031D9429FF30F000FF30F1007F30F2001E
:10032200FF30F3002F2A8312031377080319232ABD
:1003320073080319262A720876068039FA00F21722
:10034200F617A0017208F8007108FC007008FD00A1
:100352007408FD027508031C750FFC027608031C65
:10036200760FF802F801FC01FD01031CBF290310FE
:10037200F20CF10CF00CF80C0130A0007708F3023B
:10038200031CC9297E302007F3070318292ACE2926
:100392007E302007F307031C2C2A1830FA07FD0DC4
:1003A200FC0DF80DF00DF10DF20DA00D7408F00228
:1003B2007508031C750FF1027608031C760FF20212
:1003C200760DA004201CE7297D14F2297408F00799
:1003D20075080318750FF10776080318760AF207F5
:1003E2007D10FA031F307A05031DD0297B1B7D1C6B
:1003F200192A0310F00DF10DF20DA00D7408F00290
:100402007508031C750FF1027608031C760FF202C1
:10041200760D20040139FD070318FC0A0319F80AB6
:10042200031D192AF80CFC0CFD0CF30A0319292AE6
:10043200FA1FF8137808F2007C08F1007D08F0003A
:1004420000302E2A01309A202E2A02306A202E2ACB
:0E045200043071202E2A08305E2000000800C1
:100460009D208A110A128000840ACB0A0319CC0A43
:08047000F003031D302A08000F
:1004780083160313861106110612861206138613B5
:100488008312861106118613061386120612062099
:1004980006200620861606168615032086110620D5
:1004A800861503208611062086150320861106204E
:1004B800061286150320861106208615032086114C
:1004C80086128617861503208611062086130616BF
:1004D800861503208611061286150320861106202C
:1004E8008615032086110616861503208611062018
:1004F8000612861503208611861706178616061615
:0C05080086150320861106204A14080006
:1005140083120313FB017308031D77080319E12AEF
:1005240072087606FA007708F3077E30031C9E2AC9
:10053400F3020318E42AA12AF302031CE72A72082F
:10054400F8007108FC007008FD00F817F617031096
:10055400F201F101F0011830A0007D1CBB2A7408DF
:10056400F00775080318750FF10776080318760F5E
:10057400F207F20CF10CF00CF80CFC0CFD0C03105F
:10058400A00BAF2AF21BCB2AF80DF00DF10DF20DE2
:10059400F3037B1B701CDD2AF81FDD2AF00A031904
:1005A400F10A0319F20A031DDD2AF20CF10CF00C16
:1005B400F30A0319E42AFA1FF2130030E92A01307E
:1005C4006A20E92A02307120E92A04305E20000002
:0205D40008001D
:1005D600FD2A803083120313D100102BC030D100C6
:1005E600102B9430D100102BD430D100102B80303A
:1005F600D100102B831203135108013A0319EC2A78
:100606005108023A0319F12A5108033A0319F42A48
:100616005108043A0319F72AFA2A5203F00051083E
:10062600F0077008D1007008D6001A204A10D401CD
:1006360054085307840000080319292B540853074C
:1006460084000008D5008A20D40A1B2B4A1408000F
:1006560092238316031306103C220130D6001A207B
:100666000C30D6001A200130D1000130D2002F30D4
:10067600D300EB22D320A1015C2170088312CF00A6
:100686007108D00046210030F4004030F5001C30DF
:10069600F6008B30F7008A220030F4000030F500B7
:1006A6000030F6008930F7007921E9207008CD0086
:1006B6007108CE003D30CD000030CE000130D100B3
:1006C6000130D2003D30D300EB220230D1000130A0
:0C06D600D2002230D300EB223E2B702B10
:10072400223084001B3083120313F0007630CB0098
:080734000330CC003022080064
:1006EC0076346F346C34743461346734653420344C
:0806FC0069347334203400342A
:020704000F34B0
:100706004C3443344434203449344E345434453420
:0C0716005234463441344334453400343E
:02400E004A2F37
:00000001FF
