:02000000E42BEF
:100006007408F8027508031C750FF9027608031CBC
:10001600760FFA027708031C770FFB02F30D073001
:10002600FC00730DF80DF90DFA0DFB0D7408731C29
:100036002A28F8027508031C750FF9027608031CB6
:10004600760FFA027708031C770FFB023728F807AA
:1000560075080318750FF90776080318760FFA075F
:1000660077080318770FFB07F30DFC0B1428720DA6
:10007600F80DF90DFA0DFB0D7408731C5028F802E3
:100086007508031C750FF9027608031C760FFA0231
:100096007708031C770FFB025D28F807750803181D
:1000A600750FF90776080318760FFA07770803180D
:1000B600770FFB07F20D0730FC00720DF80DF90DF6
:1000C600FA0DFB0D7408721C7628F8027508031CDD
:1000D600750FF9027608031C760FFA027708031CDF
:1000E600770FFB028328F80775080318750FF907C1
:1000F60076080318760FFA0777080318770FFB07B9
:10010600F20DFC0B6028710DF80DF90DFA0DFB0DC3
:100116007408721C9C28F8027508031C750FF902F6
:100126007608031C760FFA027708031C770FFB028A
:10013600A928F80775080318750FF9077608031834
:10014600760FFA0777080318770FFB07F10D0730CC
:10015600FC00710DF80DF90DFA0DFB0D7408711CFC
:10016600C228F8027508031C750FF9027608031CED
:10017600760FFA027708031C770FFB02CF28F807E1
:1001860075080318750FF90776080318760FFA072E
:1001960077080318770FFB07F10DFC0BAC28700DE1
:1001A600F80DF90DFA0DFB0D7408711CE828F8021C
:1001B6007508031C750FF9027608031C760FFA0200
:1001C6007708031C770FFB02F528F8077508031854
:1001D600750FF90776080318760FFA0777080318DC
:1001E600770FFB07F00D0730FC00700DF80DF90DC9
:1001F600FA0DFB0D7408701C0E29F8027508031C15
:10020600750FF9027608031C760FFA027708031CAD
:10021600770FFB021B29F80775080318750FF907F6
:1002260076080318760FFA0777080318770FFB0787
:10023600F00DFC0BF82870182E297408F8077508BD
:100246000318750FF90776080318760FFA0777086B
:080256000318770FFB070800F5
:10025E00FB09FA09F909F809F80A0319F90A031949
:08026E00FA0A0319FB0A08005B
:1002760083160313A603A6032608003C0318482981
:10028600A6030000000000003F2900000000000057
:060296000000000008005A
:0E029C008312031355088A00540882000800DC
:1002AA00F83083120313F0002A30F100F201F3014F
:0202BA0008003A
:1002BC00831603139818642900005E2926088312FC
:0402CC00990008008D
:1002D000831203137408003A031D83297508003A3A
:1002E000031D83297608003A031D83297708003A05
:1002F000031D8329FF30F000FF30F100FF30F200D2
:100300007F30F3001C2A83120313FC01F71BFC0A45
:10031000FD01FB01FA01F901F8017308720471048F
:1003200070040319172A73087706A000A01BFD09A3
:10033000F71FA529F409F509F609F709F40A0319C5
:10034000F50A0319F60A0319F70AF31FB229F0098F
:10035000F109F209F309F00A0319F10A0319F20A83
:100360000319F30A73087704A000A01BD329032004
:10037000FC1BF029FD1F172AF009F109F209F30906
:10038000F00A0319F10A0319F20A0319F30AF8092A
:10039000F909FA09FB09F80A0319F90A0319FA0A13
:1003A0000319FB0A172AF71FEA29F31BE42973082C
:1003B000FB007208FA007108F9007008F800F301F8
:1003C000F201F101F001BA29F301F201F101F001AA
:1003D000F00A0034F309F209F109F009FC17B72912
:1003E000F80A0319F90A0319FA0A0319FB0A74082F
:1003F0007802031DBA2975087902031DBA29760807
:100400007A02031DBA2977087B02031DBA29FB0172
:10041000FA01F901F801F00A0319F10A0319F20AC5
:100420000319F30AF31FBA29A0012016FF34A00113
:0A0430007C1C1B2A2F21003E08004F
:10043A00831203132230FC00F801F901FA01FB01CF
:10044A00FC030319532A0310FB0CFA0CF90CF80CE1
:10045A00F30CF20CF10CF00C031C252AFC03031913
:10046A00452A7408F80775080318750FF9077608FE
:10047A000318760FFA0777080318770FFB07292A5C
:10048A007408F80775080318750FF9077608031832
:0E049A00760FFA0777080318770FFB070800A4
:1004A80083120313E201600884000008E100610878
:1004B800003A03196A2A61088316A6005E21E20A37
:0E04C8006208600784000008E1005B2A08005B
:1004D600831203136008840080010130E200E10109
:1004E6005F105E0884005908003A031D8C2A5808DC
:1004F6000005F1007108003A03198B2A5F1C8A2A4D
:1005060060088400FF3080006108F000E42A7A2A3F
:100516009D2A58080005F1007108003A031D9D2A1E
:100526005F1C9C2A60088400FF3080006108F00090
:10053600E42A8C2A5B088316A6003B2183125A08FC
:100546008316A6003B21831262080319BF2A5808A6
:100556000005F1007108003A0319B32A6208E104A4
:10056600E20D621002305A028316A6003B210000FB
:10057600000000000000A62A83125908003A031D55
:10058600D22A58080005F1007108003A0130031D0F
:100596000030F0006008840070088000DF2A5808E8
:1005A6000005F1007108003A013003190030F0002F
:1005B600600884007008800059086106F000700821
:0405C600E100080048
:1005CA004E218A110A128000840AD40A0319D50A14
:0805DA00F003031DE52A0800EF
:1005E200831203136008DE006108F0000130F2009C
:1005F20070080319002BF20D7210FF3EFA2A7208DE
:10060200D8007209DC006208F1000130F0007108C4
:1006120003190F2BF00D7010FF3E092B7008D60046
:10062200F0097008D30080306007840072088004EB
:1006320070088005D90167080319202BD909841392
:100642005908003A0319282B530880052A2B56080B
:1006520080045521E830F4000330F500F601F7017B
:100662001D2270088316A2007108A3007208A4005C
:100672007308A50022088312E80083162308831258
:10068200E900831624088312EA00831625088312E0
:10069200EB006308F0006408F1006508F2006608E8
:1006A200F300F00DF10DF20DF30D7010F00DF10DE0
:1006B200F20DF30D70100A30F400F501F601F701A6
:1006C2001D227008EC007108ED007208EE0073083C
:1006D200EF007008F4007108F5007208F600730864
:1006E200F70083162208F0002308F1002408F20024
:1006F2002508F300682170088316A0007108A10084
:100702007108F400F5017408750403198B2B02308B
:10071200F000E32B20088312DA006C08F4006D0865
:10072200F5006E08F6006F08F7006808F000690827
:10073200F1006A08F2006B08F30068217808F00003
:100742007908F1007A08F2007B08F3007008E800EB
:100752007108E9007208EA007308EB006C08F50002
:100762006D08F6006E08F7006F08F800F80CF70C39
:10077200F60CF50CF813781BF81780307806F400A5
:10078200803073067402031DD02B72087702031D9A
:10079200D02B71087602031DD02B70087502031846
:1007A200D42B8312DA0A83125A08F100F10CF113E6
:1007B2007108DB00073071020318E22B0130F000F0
:0607C200E32BF00108002A
:1007C800782483160313860107308312E00007306C
:1007D800E1000630E2008030E3002530E400E50166
:1007E800E601E701F122831203137008D7000730EE
:1007F800FB00FA30FC00B030FD00FD0B012CFC0BB7
:10080800012CFB0B012C00002130E00054220230A7
:10081800FB006630FC002130FD00FD0B112CFC0BA9
:10082800112CFB0B112C3A30E00054225730E00019
:100838006B22700803193E2C5730E0006B227008B9
:10084800DD00322C0614861006113E2C0610861484
:1008580006113E2C0610861006153E2C5D08313A0E
:100868000319262C5D08323A03192A2C5D08333AFD
:0808780003192E2C1A2C3F2C51
:1008F00021308400323083120313F0004530D400DD
:080900000430D500E5220800D7
:10088A00483469342034773465346C3463346F34D3
:10089A006D346534203474346F34203465346C34E8
:1008AA0065346334743472346F346E346934633447
:0208BA00003408
:1008BC0050347234653473347334203431342E3400
:1008CC004C3445344434203432342E344C34453496
:1008DC004434203433342E344C34453444342034B2
:0208EC000034D6
:02400E004A2F37
:00000001FF
