:10000000B7EF02F00000000000EF00F00000000079
:0A0010000000000000000000F3D71C
:10001C000F0E0C6E470E0D6E0D2EFED70C2EFCD750
:06002C00000000001200BC
:06003200000000001200B6
:0A003800210E0D6E0D2EFED71200F2
:10004200086A096A100E0C6E01340836093604502B
:10005200085E0550D8A0053C095ED8B007D0045010
:1000620008260550D8B0053C0926D890003601363E
:060072000C2EEAD712007B
:1000780039BE02D0CC9601D0CC8639BC02D0CC9403
:1000880001D0CC8439BA02D0CC9201D0CC8239B814
:1000980002D0CC9001D0CC801DB002D0CB8201D050
:1000A800CB92CB84C2DFCB9439B602D0CC9601D0A8
:1000B800CC8639B402D0CC9401D0CC8439B202D0E9
:1000C800CC9201D0CC8239B002D0CC9001D0CC8077
:1000D8001DB002D0CB8201D0CB92CB84A6DFCB94CB
:0C00E8001DA002D097DF01D0A3DF1200A2
:0C00F4000E0E0D6E0D2EFED70000120047
:10010000366A050E365C0AE236503424E16E000E83
:100110003520E26E200EE66E362AF3D736503424B0
:10012000E16E000E3520E26EE66A36063650342463
:10013000376E000E3520386E0A0E046E000E056E06
:1001400032C000F033C001F07CDF08C000F009C00D
:1001500001F0300E00266000DFF0E1FF6000E3F008
:10016000E2FF600003F0E6FF0A0E046E000E056E6B
:1001700032C000F033C001F064DF00C032F001C0D3
:1001800033F0000E011802E1000E001801E102D068
:060190003606CCD7120078
:100196003F0E32143E01F16FAADFF8810000F8A18C
:1001A60001D0FDD76F00BCFB00F06F00C0FB01F073
:0201B600120035
:0C01B8001D9032C039F05CDF1D80120089
:1001C400960E156E010E166E320E176E000E186E18
:1001D4003E01F86BF96BFA6BFB6BEC0EFD17F889BB
:0601E400F885F88F1200FF
:1001EA000134083609360450085E0550D8A0053C8B
:1001FA00095E003601360F0E0C6E013408360936D8
:10020A00045000A006D0085E0550D8A0053C095E3F
:10021A0005D008260550D8B0053C09260036013617
:10022A000C2EEBD700B006D0045008260550D8B0E3
:08023A00053C0926000012003A
:10024200C394C392C490C492C494C496CB94CB92E8
:10025200CC96CC94CC92CC90E0DEDFDEDEDECC829B
:10026200CC80CB84E5DECB94D8DECB84E1DECB94AC
:10027200D4DECB84DDDECB94D0DECC90CB84D8DE52
:10028200CB94CBDECB84D4DECB94CC92CC86CB8405
:10029200CFDECB94C2DECC96CC80CB84C9DECB94AD
:1002A200CC90CB84C5DECB94B8DECB84C1DECB94BC
:1002B200CC80CB84BDDECB94B0DECC90CB84B8DED8
:1002C200CB94CC86CC84CC82CC80CB84B1DECB9454
:0602D200A4DE1D801200F5
:0C02D80075DF28C032F05BDFF89F1200D9
:1002E4000FD0800E286E19D0C00E286E16D0940E32
:1002F400286E13D0D40E286E10D0800E286E0DD028
:100304002850010AEEE02850020AEEE02850030AC1
:10031400EEE02850040AEEE0F0D72904006E2850DD
:10032400002600C028F000C039F0A4DE1D902C6A1D
:100334002C502A24E96E000E2B20EA6EEE520CE0BB
:100344002C502A24E96E000E2B20EA6E6F00B8FFB1
:0C03540032F030DF2C2AECD71D801200A4
:1003600009006F00D7FFE6FF0006FAE10106F8E199
:02037000120079
:100372002E6A2F6A28C030F029C031F0800E291869
:10038200006E800E005C02E1000E285C0BE2010EA2
:100392002E6E000E2F6E28500008306E29C031F0EC
:1003A200000E315630C032F031C033F02AC034F082
:1003B2002BC035F0A4DE060E2C6E000E2D6E000E44
:1003C200006E2D50005C02E12C5000081AE22C5005
:1003D2002A24E16E2D502B20E26E010E2C5C006E61
:1003E200000E2D58016E00502A24E96E01502B2078
:1003F200EA6E6F00BBFFE6FF010E2C5E000E2D5A67
:10040200DED76000ABF0E1FF6000AFF0E2FF200E4C
:10041200E66E2E502F101AE02C6A2D6A2C502A24D8
:10042200E96E2D502B20EA6EEE50200A03E12C4A91
:100432002D2AF4D7010E2C5E000E2D5A2C502A24A0
:0E044200E16E2D502B20E26E2D0EE66E1200A4
:100450000B6A0A6A096A005004026F00D0FF09F0B3
:100460006F00CCFF08F0015005026F00D0FF0BF0C9
:100470006F00CCFF0AF000500502F3500926F4503B
:100480000A22E86A0B2201500402F3500926F450B4
:100490000A22E86A0B2208C000F009C001F00AC075
:0804A00002F00BC003F0120092
:1004A8000450000A08E10550000A05E1FF0E006E3D
:1004B8007F0E016E57D00D6A096A086A0150001054
:1004C800D8B4000C015005180A6E0ABE0D1E0B6A3E
:1004D80005AE05D0041E051E042AD8B4052A01AEAF
:1004E80005D0001E011E002AD8B4012A01500510AB
:1004F8000A6E0ABE10D075DE0BB020D00DAE000C0F
:10050800001E011E002AD8B4012A081E091E082A46
:10051800D8B4092A000C05AE0DD001BE07D0015091
:10052800096E0050086E016A006AE8D7016A006A1D
:10053800002A000C011E001E0B2ADDD7082AD8B499
:10054800092A0450085CD8A4D9D70550095CD8A456
:10055800D5D7096A086A002AD8B4012A01AECED7CD
:060568000000FF0C120070
:10056E00C39029DE67DE010E396E7FDD286AADDEAF
:10057E0000C019F001C01AF0880E046E130E056E3D
:10058E0060DF0A0E046E00C002F001C003F00450DA
:10059E0005E003320232039EFF0FFAD702C01BF0B2
:1005AE0003C01CF002C000F003C001F00A0E046E7E
:1005BE00000E056E72DF00C01BF001C01CF000C003
:1005CE0028F001C029F01E0E2A6E000E2B6ECADE18
:1005DE00010E286E010E296E1E0E2A6E000E2B6E57
:0605EE007ADEC4D7FFD73E
:020000040030CA
:0A000000770BFFBF7F3F9F0F010049
:00000001FF
