:0200000077285F
:10000800FF00030E8301C5000A08C4008A017008B6
:10001800A0008B138C1E1B288B1C1B285C207008CF
:10002800C000C10140181A2886101B2886148316A0
:100038008C128B178B1083122008F00044088A005A
:0A004800450E8300FF0E7F0E090035
:100052008316031398182F280000292883124908B1
:0400620099000800F9
:0E0066008312031343088A0042088200080038
:1000740033208A110A128000840AC20A0319C30AAF
:08008400F003031D3A280800F7
:10008C0083120313C801460884000008C700470800
:10009C00003A03195B284708C9002920C80A4808F8
:0C00AC00460784000008C7004D2808002B
:1000B800831203131A08F100981C642818121816E2
:0600C8007108F0000800C1
:1000CE0083160313981690308312980083168717A1
:1000DE00071383128C1E76281A08F0007028080069
:1000EE00483083120313A1004930A2002030A30030
:1000FE006930A4002030A5006130A6006D30A70045
:10010E002030A8007930A9006130AA007330AB000E
:10011E006830AC002030AD007030AE006C30AF00F7
:10012E006530B0006130B1007330B2006530B3009D
:10013E002030B4006530B5006E30B6007430B700B4
:10014E006530B8007230B9002030BA007A30BB008A
:10015E006530BC007230BD006F30BE00BF0183162B
:10016E000614861047309900181567202130C600F6
:10017E0046208B170B160B1783168C1683128C12B8
:10018E0086140E30FB00F430FC006230FD00FD0BD7
:10019E00CE28FC0BCE28FB0BCE280000C728D62875
:02400E004A2F37
:00000001FF
