:02000000842951
:1000060083120313F801F9011030FC00710DF80D8D
:10001600F90D7408F8027508031C750FF902031828
:100026001B287408F80775080318750FF9070310DD
:0A003600F00DF10DFC0B0928080085
:10004000133083120313FD00FD0B24280000000071
:020050000800A6
:1000520083120313FB01FA01F9018030F800F10C5D
:10006200F00C031C3D287408F90775080318750F76
:10007200FA070318FB0A0310F01F45287408FA0751
:1000820075080318750FFB07FB0CFA0CF90CF80C3A
:10009200031C30287B08F3007A08F2007908F1008B
:0600A2007808F0000800E0
:0E00A8008312031330088A002F08820008001C
:1000B60083120313BF0105303F02031869283F0866
:1000C6003E07840020308000BF0A5E283F083E07B6
:1000D60084008001BF033F083E07C0000A30F400D9
:1000E600F5013C08F0003D08F10003207808F00017
:1000F6007908F1003030F00740088400700880006D
:100106000A30F400F5013C08F0003D08F100032038
:100116007008BC007108BD0000307106031D9528EB
:1001260000307006031D98289A28BF036E28080021
:0C013600831203139501171297120800A2
:10014200831603131208013EF000F1010318F10AAD
:1001520083123308F400F50129200630F2007008FA
:10016200F4007108F50072080319BC28F50CF40CB0
:10017200F513FF3EB5280430F1007408F000710851
:100182000319C728F00D7010FF3EC12830307005EA
:10019200F3007408F0007508F100F10CF00CF11393
:1001A200F10CF00CF113700895000F3097057308ED
:0401B20097040800A6
:1001B60083120313B801B9013308BA003408BB002F
:1001C60080303406F00080307002031DEC280030C9
:1001D60033020318FA280130B8000030B90033089A
:1001E600003CBA003408031C013EBB01BB023A08BE
:1001F600BC003B08BD003508BE005B200630B600DB
:100206000030B7003708003C031D0B293608003CB8
:100216000318262936083507F20001303602F000A9
:100226000030031C013E3702F100700835078400D8
:100236000008F00072088400700880000130B602E1
:10024600031CB703052935088400203080003808D0
:10025600390403194429B601B70136083507840065
:100266000008203A031D3B29B60A0319B70A3029AC
:100276000130B602031CB7033608350784002D305B
:0402860080000800EC
:10028A0054208A110A128000840AAF0A0319B00A9C
:08029A00F003031D45290800D3
:1002A200C730831203139F052008F000F00D701071
:1002B200F00D7010F00D701070089F0420201F15B3
:1002C2001F1D6529000061291E08F100F001831637
:0A02D2001E08F0040030F1040800DB
:1002DC00513083120313AC000130AD002030AE005E
:1002EC0000309F01C0309F042109F0007008831674
:0C02FC009F051F179F1783121F14080096
:10030800AA21831603130610831212149214AB3019
:10031800831692009B206E21A00151217008831240
:10032800B1007108B2007008B3007108B40022303F
:0E033800B500DB203108B300A1209029A229D6
:1003540021308400013083120313F000A830AF0071
:080364000130B0004521080042
:020350000F3468
:02400E004A2F37
:00000001FF
